{
  "contractName": "CrossTech",
  "abi": [
    {
      "inputs": [],
      "stateMutability": "nonpayable",
      "type": "constructor"
    },
    {
      "anonymous": false,
      "inputs": [
        {
          "indexed": true,
          "internalType": "address",
          "name": "owner",
          "type": "address"
        },
        {
          "indexed": true,
          "internalType": "address",
          "name": "approved",
          "type": "address"
        },
        {
          "indexed": true,
          "internalType": "uint256",
          "name": "tokenId",
          "type": "uint256"
        }
      ],
      "name": "Approval",
      "type": "event"
    },
    {
      "anonymous": false,
      "inputs": [
        {
          "indexed": true,
          "internalType": "address",
          "name": "owner",
          "type": "address"
        },
        {
          "indexed": true,
          "internalType": "address",
          "name": "operator",
          "type": "address"
        },
        {
          "indexed": false,
          "internalType": "bool",
          "name": "approved",
          "type": "bool"
        }
      ],
      "name": "ApprovalForAll",
      "type": "event"
    },
    {
      "anonymous": false,
      "inputs": [
        {
          "indexed": true,
          "internalType": "address",
          "name": "from",
          "type": "address"
        },
        {
          "indexed": true,
          "internalType": "address",
          "name": "to",
          "type": "address"
        },
        {
          "indexed": true,
          "internalType": "uint256",
          "name": "tokenId",
          "type": "uint256"
        }
      ],
      "name": "Transfer",
      "type": "event"
    },
    {
      "inputs": [
        {
          "internalType": "address",
          "name": "to",
          "type": "address"
        },
        {
          "internalType": "uint256",
          "name": "tokenId",
          "type": "uint256"
        }
      ],
      "name": "approve",
      "outputs": [],
      "stateMutability": "nonpayable",
      "type": "function"
    },
    {
      "inputs": [
        {
          "internalType": "address",
          "name": "owner",
          "type": "address"
        }
      ],
      "name": "balanceOf",
      "outputs": [
        {
          "internalType": "uint256",
          "name": "",
          "type": "uint256"
        }
      ],
      "stateMutability": "view",
      "type": "function",
      "constant": true
    },
    {
      "inputs": [
        {
          "internalType": "uint256",
          "name": "tokenId",
          "type": "uint256"
        }
      ],
      "name": "getApproved",
      "outputs": [
        {
          "internalType": "address",
          "name": "",
          "type": "address"
        }
      ],
      "stateMutability": "view",
      "type": "function",
      "constant": true
    },
    {
      "inputs": [
        {
          "internalType": "address",
          "name": "owner",
          "type": "address"
        },
        {
          "internalType": "address",
          "name": "operator",
          "type": "address"
        }
      ],
      "name": "isApprovedForAll",
      "outputs": [
        {
          "internalType": "bool",
          "name": "",
          "type": "bool"
        }
      ],
      "stateMutability": "view",
      "type": "function",
      "constant": true
    },
    {
      "inputs": [],
      "name": "name",
      "outputs": [
        {
          "internalType": "string",
          "name": "",
          "type": "string"
        }
      ],
      "stateMutability": "view",
      "type": "function",
      "constant": true
    },
    {
      "inputs": [
        {
          "internalType": "uint256",
          "name": "tokenId",
          "type": "uint256"
        }
      ],
      "name": "ownerOf",
      "outputs": [
        {
          "internalType": "address",
          "name": "",
          "type": "address"
        }
      ],
      "stateMutability": "view",
      "type": "function",
      "constant": true
    },
    {
      "inputs": [
        {
          "internalType": "address",
          "name": "from",
          "type": "address"
        },
        {
          "internalType": "address",
          "name": "to",
          "type": "address"
        },
        {
          "internalType": "uint256",
          "name": "tokenId",
          "type": "uint256"
        }
      ],
      "name": "safeTransferFrom",
      "outputs": [],
      "stateMutability": "nonpayable",
      "type": "function"
    },
    {
      "inputs": [
        {
          "internalType": "address",
          "name": "from",
          "type": "address"
        },
        {
          "internalType": "address",
          "name": "to",
          "type": "address"
        },
        {
          "internalType": "uint256",
          "name": "tokenId",
          "type": "uint256"
        },
        {
          "internalType": "bytes",
          "name": "data",
          "type": "bytes"
        }
      ],
      "name": "safeTransferFrom",
      "outputs": [],
      "stateMutability": "nonpayable",
      "type": "function"
    },
    {
      "inputs": [
        {
          "internalType": "address",
          "name": "operator",
          "type": "address"
        },
        {
          "internalType": "bool",
          "name": "approved",
          "type": "bool"
        }
      ],
      "name": "setApprovalForAll",
      "outputs": [],
      "stateMutability": "nonpayable",
      "type": "function"
    },
    {
      "inputs": [
        {
          "internalType": "bytes4",
          "name": "interfaceId",
          "type": "bytes4"
        }
      ],
      "name": "supportsInterface",
      "outputs": [
        {
          "internalType": "bool",
          "name": "",
          "type": "bool"
        }
      ],
      "stateMutability": "view",
      "type": "function",
      "constant": true
    },
    {
      "inputs": [],
      "name": "symbol",
      "outputs": [
        {
          "internalType": "string",
          "name": "",
          "type": "string"
        }
      ],
      "stateMutability": "view",
      "type": "function",
      "constant": true
    },
    {
      "inputs": [
        {
          "internalType": "address",
          "name": "from",
          "type": "address"
        },
        {
          "internalType": "address",
          "name": "to",
          "type": "address"
        },
        {
          "internalType": "uint256",
          "name": "tokenId",
          "type": "uint256"
        }
      ],
      "name": "transferFrom",
      "outputs": [],
      "stateMutability": "nonpayable",
      "type": "function"
    },
    {
      "inputs": [
        {
          "internalType": "uint256",
          "name": "tokenId",
          "type": "uint256"
        }
      ],
      "name": "tokenURI",
      "outputs": [
        {
          "internalType": "string",
          "name": "",
          "type": "string"
        }
      ],
      "stateMutability": "view",
      "type": "function",
      "constant": true
    },
    {
      "inputs": [
        {
          "internalType": "address",
          "name": "to",
          "type": "address"
        },
        {
          "internalType": "uint256",
          "name": "tokenId",
          "type": "uint256"
        },
        {
          "internalType": "string",
          "name": "uri",
          "type": "string"
        }
      ],
      "name": "mint",
      "outputs": [],
      "stateMutability": "nonpayable",
      "type": "function"
    }
  ],
  "bytecode": "0x60806040523480156200001157600080fd5b506040518060400160405280600981526020017f43726f73735465636800000000000000000000000000000000000000000000008152506040518060400160405280600d81526020017f4e46542043726f7373546563680000000000000000000000000000000000000081525081600090816200008f91906200032a565b508060019081620000a191906200032a565b50505062000411565b600081519050919050565b7f4e487b7100000000000000000000000000000000000000000000000000000000600052604160045260246000fd5b7f4e487b7100000000000000000000000000000000000000000000000000000000600052602260045260246000fd5b600060028204905060018216806200012c57607f821691505b602082108103620001425762000141620000e4565b5b50919050565b60008190508160005260206000209050919050565b60006020601f8301049050919050565b60008160020a8302905092915050565b600060088302620001af7fffffffffffffffffffffffffffffffffffffffffffffffffffffffffffffffff826200016d565b620001bb86836200016d565b95508019841693508086168417925050509392505050565b6000819050919050565b6000819050919050565b60006200020862000202620001fc84620001d3565b620001dd565b620001d3565b9050919050565b6000819050919050565b6200022483620001e7565b6200023c62000233826200020f565b8484546200017d565b825550505050565b600090565b6200025362000244565b6200026081848462000219565b505050565b5b8181101562000288576200027c60008262000249565b60018101905062000266565b5050565b601f821115620002d757620002a18162000148565b620002ac846200015d565b81016020851015620002bc578190505b620002d4620002cb856200015d565b83018262000265565b50505b505050565b60008160020a8304905092915050565b6000620002ff60001984600802620002dc565b1980831691505092915050565b60006200031a8383620002ec565b9150826002028217905092915050565b6200033582620000aa565b67ffffffffffffffff811115620003515762000350620000b5565b5b6200035d825462000113565b6200036a8282856200028c565b600060209050601f831160018114620003a257600084156200038d578287015190505b6200039985826200030c565b86555062000409565b601f198416620003b28662000148565b60005b82811015620003dc57848901518255600182019150602085019450602081019050620003b5565b86831015620003fc5784890151620003f8601f891682620002ec565b8355505b6001600288020188555050505b505050505050565b6126b580620004216000396000f3fe608060405234801561001057600080fd5b5060043610610107576000357c01000000000000000000000000000000000000000000000000000000009004806370a08231116100a9578063b88d4fde11610083578063b88d4fde14610278578063c87b56dd14610294578063d3fc9864146102c4578063e985e9c5146102e057610107565b806370a082311461020e57806395d89b411461023e578063a22cb4651461025c57610107565b8063095ea7b3116100e5578063095ea7b31461018a57806323b872dd146101a657806342842e0e146101c25780636352211e146101de57610107565b806301ffc9a71461010c57806306fdde031461013c578063081812fc1461015a575b600080fd5b6101266004803603810190610121919061161a565b610310565b6040516101339190611662565b60405180910390f35b6101446103f2565b604051610151919061170d565b60405180910390f35b610174600480360381019061016f9190611765565b610484565b60405161018191906117d3565b60405180910390f35b6101a4600480360381019061019f919061181a565b6104ca565b005b6101c060048036038101906101bb919061185a565b6105e1565b005b6101dc60048036038101906101d7919061185a565b610641565b005b6101f860048036038101906101f39190611765565b610661565b60405161020591906117d3565b60405180910390f35b610228600480360381019061022391906118ad565b6106e7565b60405161023591906118e9565b60405180910390f35b61024661079e565b604051610253919061170d565b60405180910390f35b61027660048036038101906102719190611930565b610830565b005b610292600480360381019061028d9190611aa5565b610846565b005b6102ae60048036038101906102a99190611765565b6108a8565b6040516102bb919061170d565b60405180910390f35b6102de60048036038101906102d99190611bc9565b610995565b005b6102fa60048036038101906102f59190611c38565b6109c5565b6040516103079190611662565b60405180910390f35b60007f80ac58cd000000000000000000000000000000000000000000000000000000007bffffffffffffffffffffffffffffffffffffffffffffffffffffffff1916827bffffffffffffffffffffffffffffffffffffffffffffffffffffffff191614806103db57507f5b5e139f000000000000000000000000000000000000000000000000000000007bffffffffffffffffffffffffffffffffffffffffffffffffffffffff1916827bffffffffffffffffffffffffffffffffffffffffffffffffffffffff1916145b806103eb57506103ea82610a59565b5b9050919050565b60606000805461040190611ca7565b80601f016020809104026020016040519081016040528092919081815260200182805461042d90611ca7565b801561047a5780601f1061044f5761010080835404028352916020019161047a565b820191906000526020600020905b81548152906001019060200180831161045d57829003601f168201915b5050505050905090565b600061048f82610ac3565b6004600083815260200190815260200160002060009054906101000a900473ffffffffffffffffffffffffffffffffffffffff169050919050565b60006104d582610661565b90508073ffffffffffffffffffffffffffffffffffffffff168373ffffffffffffffffffffffffffffffffffffffff1603610545576040517f08c379a000000000000000000000000000000000000000000000000000000000815260040161053c90611d4a565b60405180910390fd5b8073ffffffffffffffffffffffffffffffffffffffff16610564610b0e565b73ffffffffffffffffffffffffffffffffffffffff16148061059357506105928161058d610b0e565b6109c5565b5b6105d2576040517f08c379a00000000000000000000000000000000000000000000000000000000081526004016105c990611ddc565b60405180910390fd5b6105dc8383610b16565b505050565b6105f26105ec610b0e565b82610bcf565b610631576040517f08c379a000000000000000000000000000000000000000000000000000000000815260040161062890611e6e565b60405180910390fd5b61063c838383610c64565b505050565b61065c83838360405180602001604052806000815250610846565b505050565b60008061066d83610f5d565b9050600073ffffffffffffffffffffffffffffffffffffffff168173ffffffffffffffffffffffffffffffffffffffff16036106de576040517f08c379a00000000000000000000000000000000000000000000000000000000081526004016106d590611eda565b60405180910390fd5b80915050919050565b60008073ffffffffffffffffffffffffffffffffffffffff168273ffffffffffffffffffffffffffffffffffffffff1603610757576040517f08c379a000000000000000000000000000000000000000000000000000000000815260040161074e90611f6c565b60405180910390fd5b600360008373ffffffffffffffffffffffffffffffffffffffff1673ffffffffffffffffffffffffffffffffffffffff168152602001908152602001600020549050919050565b6060600180546107ad90611ca7565b80601f01602080910402602001604051908101604052809291908181526020018280546107d990611ca7565b80156108265780601f106107fb57610100808354040283529160200191610826565b820191906000526020600020905b81548152906001019060200180831161080957829003601f168201915b5050505050905090565b61084261083b610b0e565b8383610f9a565b5050565b610857610851610b0e565b83610bcf565b610896576040517f08c379a000000000000000000000000000000000000000000000000000000000815260040161088d90611e6e565b60405180910390fd5b6108a284848484611106565b50505050565b60606108b382611162565b6108f2576040517f08c379a00000000000000000000000000000000000000000000000000000000081526004016108e990611ffe565b60405180910390fd5b60066000838152602001908152602001600020805461091090611ca7565b80601f016020809104026020016040519081016040528092919081815260200182805461093c90611ca7565b80156109895780601f1061095e57610100808354040283529160200191610989565b820191906000526020600020905b81548152906001019060200180831161096c57829003601f168201915b50505050509050919050565b806006600084815260200190815260200160002090816109b591906121d0565b506109c083836111a3565b505050565b6000600560008473ffffffffffffffffffffffffffffffffffffffff1673ffffffffffffffffffffffffffffffffffffffff16815260200190815260200160002060008373ffffffffffffffffffffffffffffffffffffffff1673ffffffffffffffffffffffffffffffffffffffff16815260200190815260200160002060009054906101000a900460ff16905092915050565b60007f01ffc9a7000000000000000000000000000000000000000000000000000000007bffffffffffffffffffffffffffffffffffffffffffffffffffffffff1916827bffffffffffffffffffffffffffffffffffffffffffffffffffffffff1916149050919050565b610acc81611162565b610b0b576040517f08c379a0000000000000000000000000000000000000000000000000000000008152600401610b0290611eda565b60405180910390fd5b50565b600033905090565b816004600083815260200190815260200160002060006101000a81548173ffffffffffffffffffffffffffffffffffffffff021916908373ffffffffffffffffffffffffffffffffffffffff160217905550808273ffffffffffffffffffffffffffffffffffffffff16610b8983610661565b73ffffffffffffffffffffffffffffffffffffffff167f8c5be1e5ebec7d5bd14f71427d1e84f3dd0314c0f7b2291e5b200ac8c7c3b92560405160405180910390a45050565b600080610bdb83610661565b90508073ffffffffffffffffffffffffffffffffffffffff168473ffffffffffffffffffffffffffffffffffffffff161480610c1d5750610c1c81856109c5565b5b80610c5b57508373ffffffffffffffffffffffffffffffffffffffff16610c4384610484565b73ffffffffffffffffffffffffffffffffffffffff16145b91505092915050565b8273ffffffffffffffffffffffffffffffffffffffff16610c8482610661565b73ffffffffffffffffffffffffffffffffffffffff1614610cda576040517f08c379a0000000000000000000000000000000000000000000000000000000008152600401610cd190612314565b60405180910390fd5b600073ffffffffffffffffffffffffffffffffffffffff168273ffffffffffffffffffffffffffffffffffffffff1603610d49576040517f08c379a0000000000000000000000000000000000000000000000000000000008152600401610d40906123a6565b60405180910390fd5b610d5683838360016113c0565b8273ffffffffffffffffffffffffffffffffffffffff16610d7682610661565b73ffffffffffffffffffffffffffffffffffffffff1614610dcc576040517f08c379a0000000000000000000000000000000000000000000000000000000008152600401610dc390612314565b60405180910390fd5b6004600082815260200190815260200160002060006101000a81549073ffffffffffffffffffffffffffffffffffffffff02191690556001600360008573ffffffffffffffffffffffffffffffffffffffff1673ffffffffffffffffffffffffffffffffffffffff168152602001908152602001600020600082825403925050819055506001600360008473ffffffffffffffffffffffffffffffffffffffff1673ffffffffffffffffffffffffffffffffffffffff16815260200190815260200160002060008282540192505081905550816002600083815260200190815260200160002060006101000a81548173ffffffffffffffffffffffffffffffffffffffff021916908373ffffffffffffffffffffffffffffffffffffffff160217905550808273ffffffffffffffffffffffffffffffffffffffff168473ffffffffffffffffffffffffffffffffffffffff167fddf252ad1be2c89b69c2b068fc378daa952ba7f163c4a11628f55a4df523b3ef60405160405180910390a4610f5883838360016113c6565b505050565b60006002600083815260200190815260200160002060009054906101000a900473ffffffffffffffffffffffffffffffffffffffff169050919050565b8173ffffffffffffffffffffffffffffffffffffffff168373ffffffffffffffffffffffffffffffffffffffff1603611008576040517f08c379a0000000000000000000000000000000000000000000000000000000008152600401610fff90612412565b60405180910390fd5b80600560008573ffffffffffffffffffffffffffffffffffffffff1673ffffffffffffffffffffffffffffffffffffffff16815260200190815260200160002060008473ffffffffffffffffffffffffffffffffffffffff1673ffffffffffffffffffffffffffffffffffffffff16815260200190815260200160002060006101000a81548160ff0219169083151502179055508173ffffffffffffffffffffffffffffffffffffffff168373ffffffffffffffffffffffffffffffffffffffff167f17307eab39ab6107e8899845ad3d59bd9653f200f220920489ca2b5937696c31836040516110f99190611662565b60405180910390a3505050565b611111848484610c64565b61111d848484846113cc565b61115c576040517f08c379a0000000000000000000000000000000000000000000000000000000008152600401611153906124a4565b60405180910390fd5b50505050565b60008073ffffffffffffffffffffffffffffffffffffffff1661118483610f5d565b73ffffffffffffffffffffffffffffffffffffffff1614159050919050565b600073ffffffffffffffffffffffffffffffffffffffff168273ffffffffffffffffffffffffffffffffffffffff1603611212576040517f08c379a000000000000000000000000000000000000000000000000000000000815260040161120990612510565b60405180910390fd5b61121b81611162565b1561125b576040517f08c379a00000000000000000000000000000000000000000000000000000000081526004016112529061257c565b60405180910390fd5b6112696000838360016113c0565b61127281611162565b156112b2576040517f08c379a00000000000000000000000000000000000000000000000000000000081526004016112a99061257c565b60405180910390fd5b6001600360008473ffffffffffffffffffffffffffffffffffffffff1673ffffffffffffffffffffffffffffffffffffffff16815260200190815260200160002060008282540192505081905550816002600083815260200190815260200160002060006101000a81548173ffffffffffffffffffffffffffffffffffffffff021916908373ffffffffffffffffffffffffffffffffffffffff160217905550808273ffffffffffffffffffffffffffffffffffffffff16600073ffffffffffffffffffffffffffffffffffffffff167fddf252ad1be2c89b69c2b068fc378daa952ba7f163c4a11628f55a4df523b3ef60405160405180910390a46113bc6000838360016113c6565b5050565b50505050565b50505050565b60006113ed8473ffffffffffffffffffffffffffffffffffffffff1661158b565b1561157e578373ffffffffffffffffffffffffffffffffffffffff1663150b7a02611416610b0e565b8786866040518563ffffffff167c010000000000000000000000000000000000000000000000000000000002815260040161145494939291906125f1565b6020604051808303816000875af192505050801561149057506040513d601f19601f8201168201806040525081019061148d9190612652565b60015b611512573d80600081146114c0576040519150601f19603f3d011682016040523d82523d6000602084013e6114c5565b606091505b50600081510361150a576040517f08c379a0000000000000000000000000000000000000000000000000000000008152600401611501906124a4565b60405180910390fd5b805181602001fd5b63150b7a027c0100000000000000000000000000000000000000000000000000000000027bffffffffffffffffffffffffffffffffffffffffffffffffffffffff1916817bffffffffffffffffffffffffffffffffffffffffffffffffffffffff191614915050611583565b600190505b949350505050565b6000808273ffffffffffffffffffffffffffffffffffffffff163b119050919050565b6000604051905090565b600080fd5b600080fd5b60007fffffffff0000000000000000000000000000000000000000000000000000000082169050919050565b6115f7816115c2565b811461160257600080fd5b50565b600081359050611614816115ee565b92915050565b6000602082840312156116305761162f6115b8565b5b600061163e84828501611605565b91505092915050565b60008115159050919050565b61165c81611647565b82525050565b60006020820190506116776000830184611653565b92915050565b600081519050919050565b600082825260208201905092915050565b60005b838110156116b757808201518184015260208101905061169c565b60008484015250505050565b6000601f19601f8301169050919050565b60006116df8261167d565b6116e98185611688565b93506116f9818560208601611699565b611702816116c3565b840191505092915050565b6000602082019050818103600083015261172781846116d4565b905092915050565b6000819050919050565b6117428161172f565b811461174d57600080fd5b50565b60008135905061175f81611739565b92915050565b60006020828403121561177b5761177a6115b8565b5b600061178984828501611750565b91505092915050565b600073ffffffffffffffffffffffffffffffffffffffff82169050919050565b60006117bd82611792565b9050919050565b6117cd816117b2565b82525050565b60006020820190506117e860008301846117c4565b92915050565b6117f7816117b2565b811461180257600080fd5b50565b600081359050611814816117ee565b92915050565b60008060408385031215611831576118306115b8565b5b600061183f85828601611805565b925050602061185085828601611750565b9150509250929050565b600080600060608486031215611873576118726115b8565b5b600061188186828701611805565b935050602061189286828701611805565b92505060406118a386828701611750565b9150509250925092565b6000602082840312156118c3576118c26115b8565b5b60006118d184828501611805565b91505092915050565b6118e38161172f565b82525050565b60006020820190506118fe60008301846118da565b92915050565b61190d81611647565b811461191857600080fd5b50565b60008135905061192a81611904565b92915050565b60008060408385031215611947576119466115b8565b5b600061195585828601611805565b92505060206119668582860161191b565b9150509250929050565b600080fd5b600080fd5b7f4e487b7100000000000000000000000000000000000000000000000000000000600052604160045260246000fd5b6119b2826116c3565b810181811067ffffffffffffffff821117156119d1576119d061197a565b5b80604052505050565b60006119e46115ae565b90506119f082826119a9565b919050565b600067ffffffffffffffff821115611a1057611a0f61197a565b5b611a19826116c3565b9050602081019050919050565b82818337600083830152505050565b6000611a48611a43846119f5565b6119da565b905082815260208101848484011115611a6457611a63611975565b5b611a6f848285611a26565b509392505050565b600082601f830112611a8c57611a8b611970565b5b8135611a9c848260208601611a35565b91505092915050565b60008060008060808587031215611abf57611abe6115b8565b5b6000611acd87828801611805565b9450506020611ade87828801611805565b9350506040611aef87828801611750565b925050606085013567ffffffffffffffff811115611b1057611b0f6115bd565b5b611b1c87828801611a77565b91505092959194509250565b600067ffffffffffffffff821115611b4357611b4261197a565b5b611b4c826116c3565b9050602081019050919050565b6000611b6c611b6784611b28565b6119da565b905082815260208101848484011115611b8857611b87611975565b5b611b93848285611a26565b509392505050565b600082601f830112611bb057611baf611970565b5b8135611bc0848260208601611b59565b91505092915050565b600080600060608486031215611be257611be16115b8565b5b6000611bf086828701611805565b9350506020611c0186828701611750565b925050604084013567ffffffffffffffff811115611c2257611c216115bd565b5b611c2e86828701611b9b565b9150509250925092565b60008060408385031215611c4f57611c4e6115b8565b5b6000611c5d85828601611805565b9250506020611c6e85828601611805565b9150509250929050565b7f4e487b7100000000000000000000000000000000000000000000000000000000600052602260045260246000fd5b60006002820490506001821680611cbf57607f821691505b602082108103611cd257611cd1611c78565b5b50919050565b7f4552433732313a20617070726f76616c20746f2063757272656e74206f776e6560008201527f7200000000000000000000000000000000000000000000000000000000000000602082015250565b6000611d34602183611688565b9150611d3f82611cd8565b604082019050919050565b60006020820190508181036000830152611d6381611d27565b9050919050565b7f4552433732313a20617070726f76652063616c6c6572206973206e6f7420746f60008201527f6b656e206f776e6572206f7220617070726f76656420666f7220616c6c000000602082015250565b6000611dc6603d83611688565b9150611dd182611d6a565b604082019050919050565b60006020820190508181036000830152611df581611db9565b9050919050565b7f4552433732313a2063616c6c6572206973206e6f7420746f6b656e206f776e6560008201527f72206f7220617070726f76656400000000000000000000000000000000000000602082015250565b6000611e58602d83611688565b9150611e6382611dfc565b604082019050919050565b60006020820190508181036000830152611e8781611e4b565b9050919050565b7f4552433732313a20696e76616c696420746f6b656e2049440000000000000000600082015250565b6000611ec4601883611688565b9150611ecf82611e8e565b602082019050919050565b60006020820190508181036000830152611ef381611eb7565b9050919050565b7f4552433732313a2061646472657373207a65726f206973206e6f74206120766160008201527f6c6964206f776e65720000000000000000000000000000000000000000000000602082015250565b6000611f56602983611688565b9150611f6182611efa565b604082019050919050565b60006020820190508181036000830152611f8581611f49565b9050919050565b7f4552433732314d657461646174613a2055524920717565727920666f72206e6f60008201527f6e6578697374656e7420746f6b656e0000000000000000000000000000000000602082015250565b6000611fe8602f83611688565b9150611ff382611f8c565b604082019050919050565b6000602082019050818103600083015261201781611fdb565b9050919050565b60008190508160005260206000209050919050565b60006020601f8301049050919050565b60008160020a8302905092915050565b6000600883026120837fffffffffffffffffffffffffffffffffffffffffffffffffffffffffffffffff82612043565b61208d8683612043565b95508019841693508086168417925050509392505050565b6000819050919050565b60006120ca6120c56120c08461172f565b6120a5565b61172f565b9050919050565b6000819050919050565b6120e4836120af565b6120f86120f0826120d1565b848454612053565b825550505050565b600090565b61210d612100565b6121188184846120db565b505050565b5b8181101561213c57612131600082612105565b60018101905061211e565b5050565b601f821115612181576121528161201e565b61215b84612033565b8101602085101561216a578190505b61217e61217685612033565b83018261211d565b50505b505050565b60008160020a8304905092915050565b60006121a760001984600802612186565b1980831691505092915050565b60006121c08383612196565b9150826002028217905092915050565b6121d98261167d565b67ffffffffffffffff8111156121f2576121f161197a565b5b6121fc8254611ca7565b612207828285612140565b600060209050601f83116001811461223a5760008415612228578287015190505b61223285826121b4565b86555061229a565b601f1984166122488661201e565b60005b828110156122705784890151825560018201915060208501945060208101905061224b565b8683101561228d5784890151612289601f891682612196565b8355505b6001600288020188555050505b505050505050565b7f4552433732313a207472616e736665722066726f6d20696e636f72726563742060008201527f6f776e6572000000000000000000000000000000000000000000000000000000602082015250565b60006122fe602583611688565b9150612309826122a2565b604082019050919050565b6000602082019050818103600083015261232d816122f1565b9050919050565b7f4552433732313a207472616e7366657220746f20746865207a65726f2061646460008201527f7265737300000000000000000000000000000000000000000000000000000000602082015250565b6000612390602483611688565b915061239b82612334565b604082019050919050565b600060208201905081810360008301526123bf81612383565b9050919050565b7f4552433732313a20617070726f766520746f2063616c6c657200000000000000600082015250565b60006123fc601983611688565b9150612407826123c6565b602082019050919050565b6000602082019050818103600083015261242b816123ef565b9050919050565b7f4552433732313a207472616e7366657220746f206e6f6e20455243373231526560008201527f63656976657220696d706c656d656e7465720000000000000000000000000000602082015250565b600061248e603283611688565b915061249982612432565b604082019050919050565b600060208201905081810360008301526124bd81612481565b9050919050565b7f4552433732313a206d696e7420746f20746865207a65726f2061646472657373600082015250565b60006124fa602083611688565b9150612505826124c4565b602082019050919050565b60006020820190508181036000830152612529816124ed565b9050919050565b7f4552433732313a20746f6b656e20616c7265616479206d696e74656400000000600082015250565b6000612566601c83611688565b915061257182612530565b602082019050919050565b6000602082019050818103600083015261259581612559565b9050919050565b600081519050919050565b600082825260208201905092915050565b60006125c38261259c565b6125cd81856125a7565b93506125dd818560208601611699565b6125e6816116c3565b840191505092915050565b600060808201905061260660008301876117c4565b61261360208301866117c4565b61262060408301856118da565b818103606083015261263281846125b8565b905095945050505050565b60008151905061264c816115ee565b92915050565b600060208284031215612668576126676115b8565b5b60006126768482850161263d565b9150509291505056fea26469706673582212208b7329820b087e516f60bc3b9b9892409763d0ee6dcadba37b11258c7b6facf264736f6c63430008130033",
  "immutableReferences": {},
  "source": "// SPDX-License-Identifier: MIT\npragma solidity 0.8.19;\n\nimport \"@openzeppelin/contracts/token/ERC721/ERC721.sol\";\ncontract CrossTech is ERC721 {\n    \n    mapping (uint256 => string) private baseURI;\n    constructor() ERC721(\"CrossTech\", \"NFT CrossTech\") {\n\n    }\n\n    // .../.json\n    function tokenURI(uint256 tokenId) public view virtual override returns (string memory) {\n        require(_exists(tokenId), \"ERC721Metadata: URI query for nonexistent token\");\n        return baseURI[tokenId];\n    }\n\n    function mint(address to, uint256 tokenId,string memory uri) external {\n        baseURI[tokenId]=uri;\n        _mint(to, tokenId);\n    }\n}",
  "sourcePath": "/media/congbacoor/6856ECE256ECB1CC/HoDienCOng/smart-contract/ok/contracts/CrossTech.sol",
  "compiler": {
    "name": "solc",
    "version": "0.8.19+commit.7dd6d404.Emscripten.clang"
  },
  "schemaVersion": "3.4.13",
  "updatedAt": "2023-03-18T00:15:51.503Z",
  "networkType": "ethereum",
  "devdoc": {
    "events": {
      "Approval(address,address,uint256)": {
        "details": "Emitted when `owner` enables `approved` to manage the `tokenId` token."
      },
      "ApprovalForAll(address,address,bool)": {
        "details": "Emitted when `owner` enables or disables (`approved`) `operator` to manage all of its assets."
      },
      "Transfer(address,address,uint256)": {
        "details": "Emitted when `tokenId` token is transferred from `from` to `to`."
      }
    },
    "kind": "dev",
    "methods": {
      "approve(address,uint256)": {
        "details": "See {IERC721-approve}."
      },
      "balanceOf(address)": {
        "details": "See {IERC721-balanceOf}."
      },
      "getApproved(uint256)": {
        "details": "See {IERC721-getApproved}."
      },
      "isApprovedForAll(address,address)": {
        "details": "See {IERC721-isApprovedForAll}."
      },
      "name()": {
        "details": "See {IERC721Metadata-name}."
      },
      "ownerOf(uint256)": {
        "details": "See {IERC721-ownerOf}."
      },
      "safeTransferFrom(address,address,uint256)": {
        "details": "See {IERC721-safeTransferFrom}."
      },
      "safeTransferFrom(address,address,uint256,bytes)": {
        "details": "See {IERC721-safeTransferFrom}."
      },
      "setApprovalForAll(address,bool)": {
        "details": "See {IERC721-setApprovalForAll}."
      },
      "supportsInterface(bytes4)": {
        "details": "See {IERC165-supportsInterface}."
      },
      "symbol()": {
        "details": "See {IERC721Metadata-symbol}."
      },
      "tokenURI(uint256)": {
        "details": "See {IERC721Metadata-tokenURI}."
      },
      "transferFrom(address,address,uint256)": {
        "details": "See {IERC721-transferFrom}."
      }
    },
    "version": 1
  },
  "userdoc": {
    "kind": "user",
    "methods": {},
    "version": 1
  }
}